{
  "contractName": "FORTSale",
  "abi": [
    {
      "inputs": [
        {
          "internalType": "address",
          "name": "_dev",
          "type": "address"
        },
        {
          "internalType": "uint256",
          "name": "_presaleTimestamp",
          "type": "uint256"
        },
        {
          "internalType": "address",
          "name": "mim_address",
          "type": "address"
        }
      ],
      "stateMutability": "nonpayable",
      "type": "constructor"
    },
    {
      "anonymous": false,
      "inputs": [
        {
          "indexed": true,
          "internalType": "address",
          "name": "previousOwner",
          "type": "address"
        },
        {
          "indexed": true,
          "internalType": "address",
          "name": "newOwner",
          "type": "address"
        }
      ],
      "name": "OwnershipTransferred",
      "type": "event"
    },
    {
      "inputs": [],
      "name": "FORT",
      "outputs": [
        {
          "internalType": "address",
          "name": "",
          "type": "address"
        }
      ],
      "stateMutability": "view",
      "type": "function"
    },
    {
      "inputs": [],
      "name": "MAX_PRESALE_PER_ACCOUNT",
      "outputs": [
        {
          "internalType": "uint256",
          "name": "",
          "type": "uint256"
        }
      ],
      "stateMutability": "view",
      "type": "function"
    },
    {
      "inputs": [],
      "name": "MAX_SALE_PER_ACCOUNT",
      "outputs": [
        {
          "internalType": "uint256",
          "name": "",
          "type": "uint256"
        }
      ],
      "stateMutability": "view",
      "type": "function"
    },
    {
      "inputs": [],
      "name": "MAX_SOLD",
      "outputs": [
        {
          "internalType": "uint256",
          "name": "",
          "type": "uint256"
        }
      ],
      "stateMutability": "view",
      "type": "function"
    },
    {
      "inputs": [],
      "name": "PRICE",
      "outputs": [
        {
          "internalType": "uint256",
          "name": "",
          "type": "uint256"
        }
      ],
      "stateMutability": "view",
      "type": "function"
    },
    {
      "inputs": [
        {
          "internalType": "address",
          "name": "",
          "type": "address"
        }
      ],
      "name": "approvedBuyers",
      "outputs": [
        {
          "internalType": "bool",
          "name": "",
          "type": "bool"
        }
      ],
      "stateMutability": "view",
      "type": "function"
    },
    {
      "inputs": [],
      "name": "dev",
      "outputs": [
        {
          "internalType": "address",
          "name": "",
          "type": "address"
        }
      ],
      "stateMutability": "view",
      "type": "function"
    },
    {
      "inputs": [
        {
          "internalType": "address",
          "name": "",
          "type": "address"
        }
      ],
      "name": "invested",
      "outputs": [
        {
          "internalType": "uint256",
          "name": "",
          "type": "uint256"
        }
      ],
      "stateMutability": "view",
      "type": "function"
    },
    {
      "inputs": [],
      "name": "owner",
      "outputs": [
        {
          "internalType": "address",
          "name": "",
          "type": "address"
        }
      ],
      "stateMutability": "view",
      "type": "function"
    },
    {
      "inputs": [],
      "name": "renounceOwnership",
      "outputs": [],
      "stateMutability": "nonpayable",
      "type": "function"
    },
    {
      "inputs": [],
      "name": "sold",
      "outputs": [
        {
          "internalType": "uint256",
          "name": "",
          "type": "uint256"
        }
      ],
      "stateMutability": "view",
      "type": "function"
    },
    {
      "inputs": [
        {
          "internalType": "address",
          "name": "newOwner",
          "type": "address"
        }
      ],
      "name": "transferOwnership",
      "outputs": [],
      "stateMutability": "nonpayable",
      "type": "function"
    },
    {
      "inputs": [
        {
          "internalType": "address",
          "name": "newBuyer_",
          "type": "address"
        }
      ],
      "name": "approveBuyer",
      "outputs": [
        {
          "internalType": "bool",
          "name": "",
          "type": "bool"
        }
      ],
      "stateMutability": "nonpayable",
      "type": "function"
    },
    {
      "inputs": [
        {
          "internalType": "address[]",
          "name": "newBuyers_",
          "type": "address[]"
        }
      ],
      "name": "approveBuyers",
      "outputs": [
        {
          "internalType": "uint256",
          "name": "",
          "type": "uint256"
        }
      ],
      "stateMutability": "nonpayable",
      "type": "function"
    },
    {
      "inputs": [],
      "name": "isPresale",
      "outputs": [
        {
          "internalType": "bool",
          "name": "",
          "type": "bool"
        }
      ],
      "stateMutability": "view",
      "type": "function"
    },
    {
      "inputs": [],
      "name": "isPublicSale",
      "outputs": [
        {
          "internalType": "bool",
          "name": "",
          "type": "bool"
        }
      ],
      "stateMutability": "view",
      "type": "function"
    },
    {
      "inputs": [
        {
          "internalType": "address",
          "name": "buyer",
          "type": "address"
        }
      ],
      "name": "amountBuyable",
      "outputs": [
        {
          "internalType": "uint256",
          "name": "",
          "type": "uint256"
        }
      ],
      "stateMutability": "view",
      "type": "function"
    },
    {
      "inputs": [
        {
          "internalType": "uint256",
          "name": "amount",
          "type": "uint256"
        }
      ],
      "name": "buyFORT",
      "outputs": [],
      "stateMutability": "nonpayable",
      "type": "function"
    },
    {
      "inputs": [],
      "name": "claimFORT",
      "outputs": [],
      "stateMutability": "nonpayable",
      "type": "function"
    },
    {
      "inputs": [
        {
          "internalType": "address",
          "name": "fort",
          "type": "address"
        }
      ],
      "name": "setClaimingActive",
      "outputs": [],
      "stateMutability": "nonpayable",
      "type": "function"
    },
    {
      "inputs": [
        {
          "internalType": "address",
          "name": "_token",
          "type": "address"
        }
      ],
      "name": "withdraw",
      "outputs": [],
      "stateMutability": "nonpayable",
      "type": "function"
    },
    {
      "inputs": [],
      "name": "getCurrentTimestamp",
      "outputs": [
        {
          "internalType": "uint256",
          "name": "",
          "type": "uint256"
        }
      ],
      "stateMutability": "view",
      "type": "function"
    }
  ],
  "bytecode": "0x60806040523480156200001157600080fd5b5060405162002285380380620022858339818101604052810190620000379190620001e3565b620000576200004b620000e960201b60201c565b620000f160201b60201c565b82600560006101000a81548173ffffffffffffffffffffffffffffffffffffffff021916908373ffffffffffffffffffffffffffffffffffffffff1602179055508160078190555080600660006101000a81548173ffffffffffffffffffffffffffffffffffffffff021916908373ffffffffffffffffffffffffffffffffffffffff160217905550505050620002ab565b600033905090565b60008060009054906101000a900473ffffffffffffffffffffffffffffffffffffffff169050816000806101000a81548173ffffffffffffffffffffffffffffffffffffffff021916908373ffffffffffffffffffffffffffffffffffffffff1602179055508173ffffffffffffffffffffffffffffffffffffffff168173ffffffffffffffffffffffffffffffffffffffff167f8be0079c531659141344cd1fd0a4f28419497f9722a3daafe3b4186f6b6457e060405160405180910390a35050565b600081519050620001c68162000277565b92915050565b600081519050620001dd8162000291565b92915050565b600080600060608486031215620001f957600080fd5b60006200020986828701620001b5565b93505060206200021c86828701620001cc565b92505060406200022f86828701620001b5565b9150509250925092565b600062000246826200024d565b9050919050565b600073ffffffffffffffffffffffffffffffffffffffff82169050919050565b6000819050919050565b620002828162000239565b81146200028e57600080fd5b50565b6200029c816200026d565b8114620002a857600080fd5b50565b611fca80620002bb6000396000f3fe608060405234801561001057600080fd5b50600436106101425760003560e01c806391cca3db116100b8578063a5f523d41161007c578063a5f523d414610357578063ac6f56e014610387578063d0e81a28146103a5578063d2544fab146103af578063f2fde38b146103cd578063f8833689146103e957610142565b806391cca3db146102af57806395364a84146102cd5780639a3b0167146102eb578063a1b75e1014610309578063a5a865dc1461033957610142565b806351cff8d91161010a57806351cff8d9146101ff57806366b3f6bf1461021b5780636c9230db1461024b578063715018a6146102695780638d859f3e146102735780638da5cb5b1461029157610142565b806302c7e7af146101475780633873fc6f1461016557806340edcbdd1461018157806341c91cb5146101b157806349ab6e05146101e1575b600080fd5b61014f610405565b60405161015c9190611cba565b60405180910390f35b61017f600480360381019061017a9190611639565b61040b565b005b61019b60048036038101906101969190611639565b6104df565b6040516101a89190611b3d565b60405180910390f35b6101cb60048036038101906101c69190611662565b6104ff565b6040516101d89190611cba565b60405180910390f35b6101e9610602565b6040516101f69190611cba565b60405180910390f35b61021960048036038101906102149190611639565b610613565b005b61023560048036038101906102309190611639565b6107e4565b6040516102429190611cba565b60405180910390f35b6102536107fc565b6040516102609190611cba565b60405180910390f35b610271610804565b005b61027b61088c565b6040516102889190611cba565b60405180910390f35b6102996108a9565b6040516102a69190611ac2565b60405180910390f35b6102b76108d2565b6040516102c49190611ac2565b60405180910390f35b6102d56108f8565b6040516102e29190611b3d565b60405180910390f35b6102f3610914565b6040516103009190611cba565b60405180910390f35b610323600480360381019061031e9190611639565b610927565b6040516103309190611cba565b60405180910390f35b610341610a64565b60405161034e9190611b3d565b60405180910390f35b610371600480360381019061036c9190611639565b610a8e565b60405161037e9190611b3d565b60405180910390f35b61038f610b1c565b60405161039c9190611cba565b60405180910390f35b6103ad610b2d565b005b6103b7610d29565b6040516103c49190611ac2565b60405180910390f35b6103e760048036038101906103e29190611639565b610d4f565b005b61040360048036038101906103fe91906116d0565b610e47565b005b60015481565b600560009054906101000a900473ffffffffffffffffffffffffffffffffffffffff1673ffffffffffffffffffffffffffffffffffffffff163373ffffffffffffffffffffffffffffffffffffffff161461049b576040517f08c379a000000000000000000000000000000000000000000000000000000000815260040161049290611bda565b60405180910390fd5b80600360006101000a81548173ffffffffffffffffffffffffffffffffffffffff021916908373ffffffffffffffffffffffffffffffffffffffff16021790555050565b60086020528060005260406000206000915054906101000a900460ff1681565b60006105096110af565b73ffffffffffffffffffffffffffffffffffffffff166105276108a9565b73ffffffffffffffffffffffffffffffffffffffff161461057d576040517f08c379a000000000000000000000000000000000000000000000000000000000815260040161057490611bfa565b60405180910390fd5b60005b808484905011156105f5576105e18484838181106105c7577f4e487b7100000000000000000000000000000000000000000000000000000000600052603260045260246000fd5b90506020020160208101906105dc9190611639565b6110b7565b5080806105ed90611e97565b915050610580565b5082829050905092915050565b600360c86106109190611d8e565b81565b600560009054906101000a900473ffffffffffffffffffffffffffffffffffffffff1673ffffffffffffffffffffffffffffffffffffffff163373ffffffffffffffffffffffffffffffffffffffff16146106a3576040517f08c379a000000000000000000000000000000000000000000000000000000000815260040161069a90611bda565b60405180910390fd5b60008173ffffffffffffffffffffffffffffffffffffffff166370a08231306040518263ffffffff1660e01b81526004016106de9190611ac2565b60206040518083038186803b1580156106f657600080fd5b505afa15801561070a573d6000803e3d6000fd5b505050506040513d601f19601f8201168201806040525081019061072e91906116f9565b90508173ffffffffffffffffffffffffffffffffffffffff1663a9059cbb600560009054906101000a900473ffffffffffffffffffffffffffffffffffffffff16836040518363ffffffff1660e01b815260040161078d929190611b14565b602060405180830381600087803b1580156107a757600080fd5b505af11580156107bb573d6000803e3d6000fd5b505050506040513d601f19601f820116820180604052508101906107df91906116a7565b505050565b60046020528060005260406000206000915090505481565b600042905090565b61080c6110af565b73ffffffffffffffffffffffffffffffffffffffff1661082a6108a9565b73ffffffffffffffffffffffffffffffffffffffff1614610880576040517f08c379a000000000000000000000000000000000000000000000000000000000815260040161087790611bfa565b60405180910390fd5b61088a60006111e1565b565b60036018600561089c9190611d8e565b6108a69190611d5d565b81565b60008060009054906101000a900473ffffffffffffffffffffffffffffffffffffffff16905090565b600560009054906101000a900473ffffffffffffffffffffffffffffffffffffffff1681565b6000426007541161090c5760019050610911565b600090505b90565b6003620111706109249190611d8e565b81565b600080600860008473ffffffffffffffffffffffffffffffffffffffff1673ffffffffffffffffffffffffffffffffffffffff16815260200190815260200160002060009054906101000a900460ff16801561098757506109866108f8565b5b1561099d57600360c861099a9190611d8e565b90505b600860008473ffffffffffffffffffffffffffffffffffffffff1673ffffffffffffffffffffffffffffffffffffffff16815260200190815260200160002060009054906101000a900460ff161580156109fb57506109fa610a64565b5b15610a115760036064610a0e9190611d8e565b90505b600460008473ffffffffffffffffffffffffffffffffffffffff1673ffffffffffffffffffffffffffffffffffffffff1681526020019081526020016000205481610a5c9190611de8565b915050919050565b60004262015180600754610a789190611d07565b11610a865760019050610a8b565b600090505b90565b6000610a986110af565b73ffffffffffffffffffffffffffffffffffffffff16610ab66108a9565b73ffffffffffffffffffffffffffffffffffffffff1614610b0c576040517f08c379a0000000000000000000000000000000000000000000000000000000008152600401610b0390611bfa565b60405180910390fd5b610b15826110b7565b9050919050565b60036064610b2a9190611d8e565b81565b3273ffffffffffffffffffffffffffffffffffffffff163373ffffffffffffffffffffffffffffffffffffffff1614610b9b576040517f08c379a0000000000000000000000000000000000000000000000000000000008152600401610b9290611c7a565b60405180910390fd5b600360009054906101000a900473ffffffffffffffffffffffffffffffffffffffff1673ffffffffffffffffffffffffffffffffffffffff1663a9059cbb33600460003373ffffffffffffffffffffffffffffffffffffffff1673ffffffffffffffffffffffffffffffffffffffff168152602001908152602001600020546040518363ffffffff1660e01b8152600401610c37929190611b14565b602060405180830381600087803b158015610c5157600080fd5b505af1158015610c65573d6000803e3d6000fd5b505050506040513d601f19601f82011682018060405250810190610c8991906116a7565b50600460003373ffffffffffffffffffffffffffffffffffffffff1673ffffffffffffffffffffffffffffffffffffffff1681526020019081526020016000205460026000828254610cdb9190611de8565b925050819055506000600460003373ffffffffffffffffffffffffffffffffffffffff1673ffffffffffffffffffffffffffffffffffffffff16815260200190815260200160002081905550565b600360009054906101000a900473ffffffffffffffffffffffffffffffffffffffff1681565b610d576110af565b73ffffffffffffffffffffffffffffffffffffffff16610d756108a9565b73ffffffffffffffffffffffffffffffffffffffff1614610dcb576040517f08c379a0000000000000000000000000000000000000000000000000000000008152600401610dc290611bfa565b60405180910390fd5b600073ffffffffffffffffffffffffffffffffffffffff168173ffffffffffffffffffffffffffffffffffffffff161415610e3b576040517f08c379a0000000000000000000000000000000000000000000000000000000008152600401610e3290611b7a565b60405180910390fd5b610e44816111e1565b50565b3273ffffffffffffffffffffffffffffffffffffffff163373ffffffffffffffffffffffffffffffffffffffff1614610eb5576040517f08c379a0000000000000000000000000000000000000000000000000000000008152600401610eac90611c7a565b60405180910390fd5b600362011170610ec59190611d8e565b60015410610f08576040517f08c379a0000000000000000000000000000000000000000000000000000000008152600401610eff90611bba565b60405180910390fd5b600362011170610f189190611d8e565b81600154610f269190611d07565b10610f66576040517f08c379a0000000000000000000000000000000000000000000000000000000008152600401610f5d90611c9a565b60405180910390fd5b610f6f33610927565b811115610fb1576040517f08c379a0000000000000000000000000000000000000000000000000000000008152600401610fa890611c1a565b60405180910390fd5b6110243330600360186005610fc69190611d8e565b610fd09190611d5d565b84610fdb9190611d8e565b600660009054906101000a900473ffffffffffffffffffffffffffffffffffffffff1673ffffffffffffffffffffffffffffffffffffffff166112a5909392919063ffffffff16565b80600460003373ffffffffffffffffffffffffffffffffffffffff1673ffffffffffffffffffffffffffffffffffffffff16815260200190815260200160002060008282546110739190611d07565b92505081905550806001600082825461108c9190611d07565b9250508190555080600260008282546110a59190611d07565b9250508190555050565b600033905090565b60006110c16110af565b73ffffffffffffffffffffffffffffffffffffffff166110df6108a9565b73ffffffffffffffffffffffffffffffffffffffff1614611135576040517f08c379a000000000000000000000000000000000000000000000000000000000815260040161112c90611bfa565b60405180910390fd5b6001600860008473ffffffffffffffffffffffffffffffffffffffff1673ffffffffffffffffffffffffffffffffffffffff16815260200190815260200160002060006101000a81548160ff021916908315150217905550600860008373ffffffffffffffffffffffffffffffffffffffff1673ffffffffffffffffffffffffffffffffffffffff16815260200190815260200160002060009054906101000a900460ff169050919050565b60008060009054906101000a900473ffffffffffffffffffffffffffffffffffffffff169050816000806101000a81548173ffffffffffffffffffffffffffffffffffffffff021916908373ffffffffffffffffffffffffffffffffffffffff1602179055508173ffffffffffffffffffffffffffffffffffffffff168173ffffffffffffffffffffffffffffffffffffffff167f8be0079c531659141344cd1fd0a4f28419497f9722a3daafe3b4186f6b6457e060405160405180910390a35050565b611328846323b872dd60e01b8585856040516024016112c693929190611add565b604051602081830303815290604052907bffffffffffffffffffffffffffffffffffffffffffffffffffffffff19166020820180517bffffffffffffffffffffffffffffffffffffffffffffffffffffffff838183161783525050505061132e565b50505050565b6000611390826040518060400160405280602081526020017f5361666545524332303a206c6f772d6c6576656c2063616c6c206661696c65648152508573ffffffffffffffffffffffffffffffffffffffff166113f59092919063ffffffff16565b90506000815111156113f057808060200190518101906113b091906116a7565b6113ef576040517f08c379a00000000000000000000000000000000000000000000000000000000081526004016113e690611c5a565b60405180910390fd5b5b505050565b6060611404848460008561140d565b90509392505050565b606082471015611452576040517f08c379a000000000000000000000000000000000000000000000000000000000815260040161144990611b9a565b60405180910390fd5b61145b85611521565b61149a576040517f08c379a000000000000000000000000000000000000000000000000000000000815260040161149190611c3a565b60405180910390fd5b6000808673ffffffffffffffffffffffffffffffffffffffff1685876040516114c39190611aab565b60006040518083038185875af1925050503d8060008114611500576040519150601f19603f3d011682016040523d82523d6000602084013e611505565b606091505b5091509150611515828286611534565b92505050949350505050565b600080823b905060008111915050919050565b6060831561154457829050611594565b6000835111156115575782518084602001fd5b816040517f08c379a000000000000000000000000000000000000000000000000000000000815260040161158b9190611b58565b60405180910390fd5b9392505050565b6000813590506115aa81611f4f565b92915050565b60008083601f8401126115c257600080fd5b8235905067ffffffffffffffff8111156115db57600080fd5b6020830191508360208202830111156115f357600080fd5b9250929050565b60008151905061160981611f66565b92915050565b60008135905061161e81611f7d565b92915050565b60008151905061163381611f7d565b92915050565b60006020828403121561164b57600080fd5b60006116598482850161159b565b91505092915050565b6000806020838503121561167557600080fd5b600083013567ffffffffffffffff81111561168f57600080fd5b61169b858286016115b0565b92509250509250929050565b6000602082840312156116b957600080fd5b60006116c7848285016115fa565b91505092915050565b6000602082840312156116e257600080fd5b60006116f08482850161160f565b91505092915050565b60006020828403121561170b57600080fd5b600061171984828501611624565b91505092915050565b61172b81611e1c565b82525050565b61173a81611e2e565b82525050565b600061174b82611cd5565b6117558185611ceb565b9350611765818560208601611e64565b80840191505092915050565b600061177c82611ce0565b6117868185611cf6565b9350611796818560208601611e64565b61179f81611f3e565b840191505092915050565b60006117b7602683611cf6565b91507f4f776e61626c653a206e6577206f776e657220697320746865207a65726f206160008301527f64647265737300000000000000000000000000000000000000000000000000006020830152604082019050919050565b600061181d602683611cf6565b91507f416464726573733a20696e73756666696369656e742062616c616e636520666f60008301527f722063616c6c00000000000000000000000000000000000000000000000000006020830152604082019050919050565b6000611883600883611cf6565b91507f736f6c64206f75740000000000000000000000000000000000000000000000006000830152602082019050919050565b60006118c3600483611cf6565b91507f21646576000000000000000000000000000000000000000000000000000000006000830152602082019050919050565b6000611903602083611cf6565b91507f4f776e61626c653a2063616c6c6572206973206e6f7420746865206f776e65726000830152602082019050919050565b6000611943601d83611cf6565b91507f616d6f756e7420657863656564732062757961626c6520616d6f756e740000006000830152602082019050919050565b6000611983601d83611cf6565b91507f416464726573733a2063616c6c20746f206e6f6e2d636f6e74726163740000006000830152602082019050919050565b60006119c3602a83611cf6565b91507f5361666545524332303a204552433230206f7065726174696f6e20646964206e60008301527f6f742073756363656564000000000000000000000000000000000000000000006020830152604082019050919050565b6000611a29600483611cf6565b91507f21454f41000000000000000000000000000000000000000000000000000000006000830152602082019050919050565b6000611a69601483611cf6565b91507f6e6f7420656e6f7567682072656d61696e696e670000000000000000000000006000830152602082019050919050565b611aa581611e5a565b82525050565b6000611ab78284611740565b915081905092915050565b6000602082019050611ad76000830184611722565b92915050565b6000606082019050611af26000830186611722565b611aff6020830185611722565b611b0c6040830184611a9c565b949350505050565b6000604082019050611b296000830185611722565b611b366020830184611a9c565b9392505050565b6000602082019050611b526000830184611731565b92915050565b60006020820190508181036000830152611b728184611771565b905092915050565b60006020820190508181036000830152611b93816117aa565b9050919050565b60006020820190508181036000830152611bb381611810565b9050919050565b60006020820190508181036000830152611bd381611876565b9050919050565b60006020820190508181036000830152611bf3816118b6565b9050919050565b60006020820190508181036000830152611c13816118f6565b9050919050565b60006020820190508181036000830152611c3381611936565b9050919050565b60006020820190508181036000830152611c5381611976565b9050919050565b60006020820190508181036000830152611c73816119b6565b9050919050565b60006020820190508181036000830152611c9381611a1c565b9050919050565b60006020820190508181036000830152611cb381611a5c565b9050919050565b6000602082019050611ccf6000830184611a9c565b92915050565b600081519050919050565b600081519050919050565b600081905092915050565b600082825260208201905092915050565b6000611d1282611e5a565b9150611d1d83611e5a565b9250827fffffffffffffffffffffffffffffffffffffffffffffffffffffffffffffffff03821115611d5257611d51611ee0565b5b828201905092915050565b6000611d6882611e5a565b9150611d7383611e5a565b925082611d8357611d82611f0f565b5b828204905092915050565b6000611d9982611e5a565b9150611da483611e5a565b9250817fffffffffffffffffffffffffffffffffffffffffffffffffffffffffffffffff0483118215151615611ddd57611ddc611ee0565b5b828202905092915050565b6000611df382611e5a565b9150611dfe83611e5a565b925082821015611e1157611e10611ee0565b5b828203905092915050565b6000611e2782611e3a565b9050919050565b60008115159050919050565b600073ffffffffffffffffffffffffffffffffffffffff82169050919050565b6000819050919050565b60005b83811015611e82578082015181840152602081019050611e67565b83811115611e91576000848401525b50505050565b6000611ea282611e5a565b91507fffffffffffffffffffffffffffffffffffffffffffffffffffffffffffffffff821415611ed557611ed4611ee0565b5b600182019050919050565b7f4e487b7100000000000000000000000000000000000000000000000000000000600052601160045260246000fd5b7f4e487b7100000000000000000000000000000000000000000000000000000000600052601260045260246000fd5b6000601f19601f8301169050919050565b611f5881611e1c565b8114611f6357600080fd5b50565b611f6f81611e2e565b8114611f7a57600080fd5b50565b611f8681611e5a565b8114611f9157600080fd5b5056fea2646970667358221220b56d54814655003b1edda32d50d0ae6435aef8bc5ff7d8f5cc24a93ea13e39c464736f6c63430008000033",
  "immutableReferences": {},
  "source": "// SPDX-License-Identifier: AGPL-3.0-or-later\n\npragma solidity 0.8.0;\n\nimport \"@openzeppelin/contracts/access/Ownable.sol\";\nimport \"@openzeppelin/contracts/token/ERC20/ERC20.sol\";\nimport \"@openzeppelin/contracts/token/ERC20/utils/SafeERC20.sol\";\n\n\ncontract FORTSale is Ownable {\n\n    using SafeERC20 for ERC20;\n    using Address for address;\n\n    uint constant MIMdecimals = 10 ^ 18;\n    uint constant FORTdecimals = 10 ^ 9;\n    uint public constant MAX_SOLD = 70000 * FORTdecimals;\n    uint public constant PRICE = 5 * MIMdecimals / FORTdecimals ;\n    uint public constant MAX_SALE_PER_ACCOUNT = 100 * FORTdecimals;\n    uint public constant MAX_PRESALE_PER_ACCOUNT = 200 * FORTdecimals;\n\n    uint public sold;\n    uint owed;\n    address public FORT;\n\n    mapping(address => uint256 ) public invested;\n\n    address public dev;\n\n    ERC20 MIM;\n\n    uint presaleTimestamp;\n\n    mapping( address => bool ) public approvedBuyers;\n\n    constructor( address _dev, uint _presaleTimestamp, address mim_address) {\n        dev = _dev;\n        presaleTimestamp = _presaleTimestamp;\n        MIM = ERC20(mim_address);\n    }\n\n\n    modifier onlyEOA() {\n        require(msg.sender == tx.origin, \"!EOA\");\n        _;\n    }\n\n    function _approveBuyer( address newBuyer_ ) internal onlyOwner() returns ( bool ) {\n      approvedBuyers[newBuyer_] = true;\n      return approvedBuyers[newBuyer_];\n    }\n\n    function approveBuyer( address newBuyer_ ) external onlyOwner() returns ( bool ) {\n      return _approveBuyer( newBuyer_ );\n    }\n\n    function approveBuyers( address[] calldata newBuyers_ ) external onlyOwner() returns ( uint256 ) {\n      for( uint256 iteration_ = 0; newBuyers_.length > iteration_; iteration_++ ) {\n        _approveBuyer( newBuyers_[iteration_] );\n      }\n      return newBuyers_.length;\n    }\n\n    function isPresale() public view returns (bool) {\n        if ( presaleTimestamp <= block.timestamp){\n          return true;\n        }\n        return false;\n    }\n\n    function isPublicSale() public view returns (bool) {\n      if (presaleTimestamp + 24 * 3600 <= block.timestamp) {\n        return true;\n      }\n      return false;\n\n    }\n\n    function amountBuyable(address buyer) public view returns (uint256) {\n        uint256 max;\n        if (approvedBuyers[buyer] && isPresale() ){\n          max = MAX_PRESALE_PER_ACCOUNT;\n        }\n        if (!approvedBuyers[buyer] && isPublicSale() ){\n          max = MAX_SALE_PER_ACCOUNT;\n        }\n        return max - invested[buyer];\n      }\n\n\n    function buyFORT(uint256 amount) public onlyEOA {\n        require(sold < MAX_SOLD, \"sold out\");\n        require(sold + amount < MAX_SOLD, \"not enough remaining\");\n        require(amount <= amountBuyable(msg.sender), \"amount exceeds buyable amount\");\n        MIM.safeTransferFrom( msg.sender, address(this), amount * PRICE  );\n        invested[msg.sender] += amount;\n        sold += amount;\n        owed += amount;\n    }\n\n    function claimFORT() public onlyEOA {\n      ERC20(FORT).transfer(msg.sender, invested[msg.sender]);\n      owed -= invested[msg.sender];\n      invested[msg.sender] = 0;\n\n    }\n    function setClaimingActive(address fort) public {\n        require(msg.sender == dev, \"!dev\");\n        FORT = fort;\n    }\n\n    function withdraw(address _token) public {\n        require(msg.sender == dev, \"!dev\");\n        uint b = IERC20(_token).balanceOf(address(this));\n        IERC20(_token).transfer(dev,b);\n    }\n\n\n    function getCurrentTimestamp() view external  returns(uint){\n        return block.timestamp;\n    }\n\n}\n",
  "sourcePath": "/home/a/scripts/crypto/FortressDAO/contracts/FORTSale.sol",
  "compiler": {
    "name": "solc",
    "version": "0.8.0+commit.c7dfd78e.Emscripten.clang"
  },
  "schemaVersion": "3.3.4",
  "updatedAt": "2021-11-12T23:48:32.135Z",
  "devdoc": {
    "kind": "dev",
    "methods": {
      "owner()": {
        "details": "Returns the address of the current owner."
      },
      "renounceOwnership()": {
        "details": "Leaves the contract without owner. It will not be possible to call `onlyOwner` functions anymore. Can only be called by the current owner. NOTE: Renouncing ownership will leave the contract without an owner, thereby removing any functionality that is only available to the owner."
      },
      "transferOwnership(address)": {
        "details": "Transfers ownership of the contract to a new account (`newOwner`). Can only be called by the current owner."
      }
    },
    "version": 1
  },
  "userdoc": {
    "kind": "user",
    "methods": {},
    "version": 1
  }
}